S01300004D696E6970726F6A656B742E7372656385
S113000045C0000060C000005EC000005CC000008D
S11300105AC0000058C0000056C0000054C0000080
S113002052C00000B2C100004EC000004CC000002D
S11300304AC0000048C0000046C0000044C00000A0
S113004092C1000040C000003EC000003CC000005F
S1130050BAC1000038C0000036C0000034C000003F
S113006044C1000030C000002EC000002CC00000BD
S11300702AC0000028C0000026C0000024C00000E0
S113008022C0000020C000001EC0000011241FBEBA
S1130090CFEFD0E4DEBFCDBF11E0A0E0B1E0EEE1F0
S11300A0FCE000E00BBF02C007900D92A631B1073F
S11300B0D9F721E0A6E1B1E001C01D92A433B20753
S11300C0E1F767D0AAC59CCFEF92FF920F931F93DD
S11300D0CF93DF93C62F7901D02F8634A1F08234D9
S11300E0A1F1833509F448C0C634C9F0C234C1F162
S11300F0D13011F160E080E0DF91CF911F910F9139
S1130100FF90EF909CC1453F81E0580710F18A01B0
S113011020E041E061E081E09BD1C63439F785EF0E
S1130120E81681E0F80608F1870120E041E061E08B
S113013081E0C1D1D130F1F66AEF81E0DF91CF9156
S11301401F910F91FF90EF907AC1453F81E05807CE
S1130150F0F28A0121E041E060E081E079D1C4CF8E
S113016085EFE81681E0F806F8F2870121E041E026
S113017060E081E0A0D1BCCF00E010E020E040E0EE
S113018060E080E065D120E040E060E080E093D171
S1130190ABCFCF93DF93CDB7DEB7A0970FB6F8946C
S11301A0DEBF0FBECDBFB8D110927C0088E880932B
S11301B07A0086E975D1209A94B182E0892784B9BE
S11301C0789481E1E82E81E0F82E80911C01813041
S11301D0B1F080911B01863908F053C08091180159
S11301E08F3F09F467C08091190190911A010A9711
S11301F008F045C0289A80911C01813051F7F89489
S113020010921C016FE071E08EE191E0F9D19A83C4
S113021089830097B1F010E01F5F6FE071E080E028
S113022090E0EED1E12FEE0FFF0B21E030E02C0F38
S11302303D1FE20FF31F91838083892B69F7898126
S11302409A81FC011081133559F1EB81FC81908076
S11302508D819E81B8D16C018F819885B4D15C0168
S113026089859A85B0D1082F10921E0110921F0122
S11302709501A601692D812F27DF7894A6CF2898B0
S1130280A4CF00E010E020E040E060E080E0E0D0B7
S113029020E040E060E080E00ED110921B0195CF99
S11302A08B819C8190D1082F912CA12CB12CC12C35
S11302B0D12CDACF8091190190911A019F938F93D9
S11302C0FF92EF9221E030E02C0F3D1F3F932F93DC
S11302D0C9D1CE0101963FD1109218010F900F9011
S11302E00F900F900F900F9070CF1F920F920FB638
S11302F00F9211242F933F935F936F937F938F9368
S11303009F93AF93BF9320917800309179008091AF
S1130310000190E02817390771F0B90163507109A1
S113032083E89AE13CD16450710970931A01609397
S1130330190120930001809118018F5F80931801A7
S113034080917A00806480937A00BF91AF919F91ED
S11303508F917F916F915F913F912F910F900FBE7D
S11303600F901F9018951F920F920FB60F921124A1
S11303708F939F9395B182E0892785B99F918F913F
S11303800F900FBE0F901F9018951F920F920FB6EB
S11303900F9211240BB60F928F93EF93FF938091DA
S11303A01B018F5F80931B01EAE7F0E08081806C82
S11303B08083FF91EF918F910F900BBE0F900FBE32
S11303C00F901F9018951F920F920FB60F92112441
S11303D00BB60F922F933F934F935F936F937F933B
S11303E08F939F93AF93BF93EF93FF9310921B014F
S11303F0CFD08632F1F0E0911D01F0E0E25EFE4FD5
S1130400808380911D018F5F80931D01FF91EF9187
S1130410BF91AF919F918F917F916F915F914F9118
S11304203F912F910F900BBE0F900FBE0F901F9016
S1130430189510921D0181E080931C01E7CF92E092
S113044094BD93E095BD67BD880F80936E000895B9
S11304500F931F93559A549A90E1299F9001112468
S1130460236090E2499FA0011124422B20E4629F63
S1130470B0011124642B20E8829FC0011124682B51
S1130480609380008AE08093810010938900009338
S1130490880010938B0000938A001F910F91089598
S11304A092E09093B00027E02093B1008093B300D2
S11304B09093700008950F931F93269A279A90E1C2
S11304C0299F90011124236090E2499FA0011124E7
S11304D0422B20E4629FB0011124642B20E8829F08
S11304E0C0011124682B609390008AE080939100EE
S11304F0109399000093980010939B0000939A0026
S11305001F910F9108959091C80095FFFCCF80939F
S1130510CE0080E090E008955098519A2CE030E0AD
S11305203093C5002093C40088E98093C1008EE015
S11305308093C200539A3093CD002093CC0098E06E
S11305409093C9008093CA0081E091E090933101B7
S1130550809330010895CF93DF93DC01EC0120E018
S113056030E0FD0101900020E9F73197EA1BFB0B15
S11305702E173F0750F489919091C00095FFFCCF4E
S11305808093C6002F5F3F4FECCFDF91CF9108954A
S11305908091C00087FFFCCF8091C6000895AA1BFC
S11305A0BB1B51E107C0AA1FBB1FA617B70710F05A
S11305B0A61BB70B881F991F5A95A9F7809590958C
S11305C0BC01CD010895FC0188279927E894219165
S11305D02032E9F3293010F02E30C8F32B3239F0F1
S11305E02D3231F4689403C035D0820F911D2191CE
S11305F020532A30C8F31EF4909581959F4F089597
S113060046E151E000C0FA01A191B081009719F4CC
S11306101097E1F0CD01DC01CD010D90002011F423
S1130620C00113C0FB012191222319F02015D9F731
S1130630F3CFFB012191201519F41E92119606C0E7
S11306402223C1F70D900020A1F7D001FA01A19354
S1130650B08308957AE0979F902D879F802D910D08
S1130660112408950F931F93CF93DF93CDB7DEB773
S11306702E970FB6F894DEBF0FBECDBF0D891E892D
S113068086E08C831A8309838FEF9FE79E838D8393
S1130690AE01475E5F4F6F89788DCE01019610D011
S11306A0EF81F885E00FF11F10822E960FB6F894B3
S11306B0DEBF0FBECDBFDF91CF911F910F91089583
S11306C02F923F924F925F926F927F928F929F925E
S11306D0AF92BF92CF92DF92EF92FF920F931F934C
S11306E0CF93DF93CDB7DEB72B970FB6F894DEBF69
S11306F00FBECDBF6C017B018A01FC0117821682FB
S1130700838181FFBFC1CE0101963C01F601938133
S1130710F70193FD859193FF81917F01882309F46B
S1130720ADC1853239F493FD859193FF81917F01A9
S1130730853221F4B60190E0D6D1E8CF912C212C5A
S1130740312CFFE1F315D8F08B3279F038F4803294
S113075079F08332A1F4232D20611DC08D3261F024
S1130760803369F4232D216016C0832D8260382ED6
S1130770E32DE4603E2E2AC0F32DF8601DC037FC43
S11307802DC020ED280F2A3040F08E32B9F436FC0B
S113079075C1232D2064322E19C036FE06C08AE0AE
S11307A0989E200D1124922E11C0EAE02E9E200D59
S11307B01124222EF32DF0623F2E08C08C3621F432
S11307C0832D8068382E02C0883641F4F70193FDEA
S11307D0859193FF81917F018111B3CF982F9F7DE4
S11307E09554933028F40C5F1F4F9FE399830DC0F9
S11307F0833631F0833771F0833509F055C020C05A
S1130800F801808189830E5F1F4F88248394912C83
S1130810530112C02801F2E04F0E511CF801A080D0
S1130820B18036FE03C0692D70E002C06FEF7FEF28
S1130830C5014ED14C018201F32DFF773F2E15C027
S1130840280122E0420E511CF801A080B18036FE3E
S113085003C0692D70E002C06FEF7FEFC5012DD199
S11308604C01F32DF0683F2E820133FC19C0822D18
S113087090E088169906A0F4B60180E290E033D1A6
S11308802A94F5CFF50137FC859137FE81915F01FC
S1130890B60190E028D121102A9421E0821A91080F
S11308A08114910479F7E1C0843611F0893639F561
S11308B0F80137FE07C060817181828193810C5FEA
S11308C01F4F08C060817181072E000C880B990BA3
S11308D00E5F1F4FF32DFF763F2E97FF09C09095B3
S11308E08095709561957F4F8F4F9F4FF0683F2E95
S11308F02AE030E0A30133D1882E861844C085371E
S113090031F4232D2F7EB22E2AE030E025C0932D22
S1130910997FB92E8F36C1F018F4883579F0AEC0BE
S1130920803719F0883721F0A9C0E92FE061BE2E85
S1130930B4FE0DC0FB2DF460BF2E09C034FE0AC006
S1130940292F2660B22E06C028E030E005C020E141
S113095030E002C020E132E0F801B7FE07C0608158
S11309607181828193810C5F1F4F06C06081718108
S113097080E090E00E5F1F4FA301F1D0882E86180F
S1130980FB2DFF773F2E36FE0DC0232D2E7FA22E8A
S1130990891458F434FE0BC032FC09C0832D8E7EBA
S11309A0A82E05C0B82CA32C03C0B82C01C0B92CA8
S11309B0A4FE0FC0FE01E80DF11D8081803321F4F7
S11309C09A2D997EA92E09C0A2FE06C0B394B394B1
S11309D004C08A2D867809F0B394A3FC10C0A0FE4D
S11309E006C0B21480F4280C922C9B180DC0B214CB
S11309F058F4B60180E290E076D0B394F8CFB21404
S1130A0018F42B1802C0982C212CA4FE0FC0B60198
S1130A1080E390E068D0A2FE16C0A1FC03C088E782
S1130A2090E002C088E590E0B6010CC08A2D86787B
S1130A3051F0A1FE02C08BE201C080E2A7FC8DE26E
S1130A40B60190E050D0891430F4B60180E390E010
S1130A504AD09A94F8CF8A94F301E80DF11D80816D
S1130A60B60190E040D08110F6CF222009F44ECE9A
S1130A70B60180E290E037D02A94F7CFF601868160
S1130A80978102C08FEF9FEF2B960FB6F894DEBFCD
S1130A900FBECDBFDF91CF911F910F91FF90EF90CB
S1130AA0DF90CF90BF90AF909F908F907F906F908A
S1130AB05F904F903F902F900895FC0105906150F6
S1130AC070400110D8F7809590958E0F9F1F089560
S1130AD0FC016150704001900110D8F78095909509
S1130AE08E0F9F1F08950F931F93CF93DF93FB01E6
S1130AF0238121FD03C08FEF9FEF2CC022FF16C07E
S1130B0046815781248135814217530744F4A081DB
S1130B10B1819D012F5F3F4F318320838C932681C8
S1130B2037812F5F3F4F3783268314C08B01EC013D
S1130B30FB010084F185E02D0995892BE1F6D801AC
S1130B4016968D919C911797019617969C938E9368
S1130B501697CE01DF91CF911F910F910895FA015D
S1130B60AA27283051F1203181F1E8946F936E7FE8
S1130B706E5F7F4F8F4F9F4FAF4FB1E03ED0B4E0D9
S1130B803CD0670F781F891F9A1FA11D680F791F1A
S1130B908A1F911DA11D6A0F711D811D911DA11D2B
S1130BA020D009F468943F912AE0269F112430193B
S1130BB0305D3193DEF6CF010895462F4770405DD6
S1130BC04193B3E00FD0C9F7F6CF462F4F70405D85
S1130BD04A3318F0495D31FD4052419302D0A9F7E0
S1130BE0EACFB4E0A6959795879577956795BA95DA
S1130BF0C9F700976105710508959B01AC010A2EA0
S1130C0006945795479537952795BA95C9F7620F76
S1110C10731F841F951FA01D0895F894FFCF35
S1130C1EFF00000002000000008302000000003A02
S1090C2E0025642600000D
S9030000FC
